{
  "contractName": "StakingContract",
  "abi": [
    {
      "anonymous": false,
      "inputs": [
        {
          "indexed": true,
          "internalType": "address",
          "name": "previousOwner",
          "type": "address"
        },
        {
          "indexed": true,
          "internalType": "address",
          "name": "newOwner",
          "type": "address"
        }
      ],
      "name": "OwnershipTransferred",
      "type": "event"
    },
    {
      "inputs": [],
      "name": "owner",
      "outputs": [
        {
          "internalType": "address",
          "name": "",
          "type": "address"
        }
      ],
      "stateMutability": "view",
      "type": "function",
      "constant": true
    },
    {
      "inputs": [],
      "name": "renounceOwnership",
      "outputs": [],
      "stateMutability": "nonpayable",
      "type": "function"
    },
    {
      "inputs": [
        {
          "internalType": "address",
          "name": "newOwner",
          "type": "address"
        }
      ],
      "name": "transferOwnership",
      "outputs": [],
      "stateMutability": "nonpayable",
      "type": "function"
    },
    {
      "inputs": [],
      "name": "getString",
      "outputs": [
        {
          "internalType": "string",
          "name": "",
          "type": "string"
        }
      ],
      "stateMutability": "view",
      "type": "function",
      "constant": true
    },
    {
      "inputs": [
        {
          "internalType": "string",
          "name": "newString",
          "type": "string"
        }
      ],
      "name": "setString",
      "outputs": [],
      "stateMutability": "nonpayable",
      "type": "function"
    }
  ],
  "bytecode": "0x60806040526040518060400160405280600681526020017f537472696e6700000000000000000000000000000000000000000000000000008152506001908051906020019061004f92919061014a565b5034801561005c57600080fd5b5061007961006e61007e60201b60201c565b61008660201b60201c565b61024e565b600033905090565b60008060009054906101000a900473ffffffffffffffffffffffffffffffffffffffff169050816000806101000a81548173ffffffffffffffffffffffffffffffffffffffff021916908373ffffffffffffffffffffffffffffffffffffffff1602179055508173ffffffffffffffffffffffffffffffffffffffff168173ffffffffffffffffffffffffffffffffffffffff167f8be0079c531659141344cd1fd0a4f28419497f9722a3daafe3b4186f6b6457e060405160405180910390a35050565b8280546101569061021c565b90600052602060002090601f01602090048101928261017857600085556101bf565b82601f1061019157805160ff19168380011785556101bf565b828001600101855582156101bf579182015b828111156101be5782518255916020019190600101906101a3565b5b5090506101cc91906101d0565b5090565b5b808211156101e95760008160009055506001016101d1565b5090565b7f4e487b7100000000000000000000000000000000000000000000000000000000600052602260045260246000fd5b6000600282049050600182168061023457607f821691505b60208210811415610248576102476101ed565b5b50919050565b61085b8061025d6000396000f3fe608060405234801561001057600080fd5b50600436106100575760003560e01c8063715018a61461005c5780637fcaf6661461006657806389ea642f146100825780638da5cb5b146100a0578063f2fde38b146100be575b600080fd5b6100646100da565b005b610080600480360381019061007b9190610509565b610162565b005b61008a610178565b60405161009791906105ef565b60405180910390f35b6100a861020a565b6040516100b59190610652565b60405180910390f35b6100d860048036038101906100d39190610699565b610233565b005b6100e261032b565b73ffffffffffffffffffffffffffffffffffffffff1661010061020a565b73ffffffffffffffffffffffffffffffffffffffff1614610156576040517f08c379a000000000000000000000000000000000000000000000000000000000815260040161014d90610712565b60405180910390fd5b6101606000610333565b565b8181600191906101739291906103f7565b505050565b60606001805461018790610761565b80601f01602080910402602001604051908101604052809291908181526020018280546101b390610761565b80156102005780601f106101d557610100808354040283529160200191610200565b820191906000526020600020905b8154815290600101906020018083116101e357829003601f168201915b5050505050905090565b60008060009054906101000a900473ffffffffffffffffffffffffffffffffffffffff16905090565b61023b61032b565b73ffffffffffffffffffffffffffffffffffffffff1661025961020a565b73ffffffffffffffffffffffffffffffffffffffff16146102af576040517f08c379a00000000000000000000000000000000000000000000000000000000081526004016102a690610712565b60405180910390fd5b600073ffffffffffffffffffffffffffffffffffffffff168173ffffffffffffffffffffffffffffffffffffffff16141561031f576040517f08c379a000000000000000000000000000000000000000000000000000000000815260040161031690610805565b60405180910390fd5b61032881610333565b50565b600033905090565b60008060009054906101000a900473ffffffffffffffffffffffffffffffffffffffff169050816000806101000a81548173ffffffffffffffffffffffffffffffffffffffff021916908373ffffffffffffffffffffffffffffffffffffffff1602179055508173ffffffffffffffffffffffffffffffffffffffff168173ffffffffffffffffffffffffffffffffffffffff167f8be0079c531659141344cd1fd0a4f28419497f9722a3daafe3b4186f6b6457e060405160405180910390a35050565b82805461040390610761565b90600052602060002090601f016020900481019282610425576000855561046c565b82601f1061043e57803560ff191683800117855561046c565b8280016001018555821561046c579182015b8281111561046b578235825591602001919060010190610450565b5b509050610479919061047d565b5090565b5b8082111561049657600081600090555060010161047e565b5090565b600080fd5b600080fd5b600080fd5b600080fd5b600080fd5b60008083601f8401126104c9576104c86104a4565b5b8235905067ffffffffffffffff8111156104e6576104e56104a9565b5b602083019150836001820283011115610502576105016104ae565b5b9250929050565b600080602083850312156105205761051f61049a565b5b600083013567ffffffffffffffff81111561053e5761053d61049f565b5b61054a858286016104b3565b92509250509250929050565b600081519050919050565b600082825260208201905092915050565b60005b83811015610590578082015181840152602081019050610575565b8381111561059f576000848401525b50505050565b6000601f19601f8301169050919050565b60006105c182610556565b6105cb8185610561565b93506105db818560208601610572565b6105e4816105a5565b840191505092915050565b6000602082019050818103600083015261060981846105b6565b905092915050565b600073ffffffffffffffffffffffffffffffffffffffff82169050919050565b600061063c82610611565b9050919050565b61064c81610631565b82525050565b60006020820190506106676000830184610643565b92915050565b61067681610631565b811461068157600080fd5b50565b6000813590506106938161066d565b92915050565b6000602082840312156106af576106ae61049a565b5b60006106bd84828501610684565b91505092915050565b7f4f776e61626c653a2063616c6c6572206973206e6f7420746865206f776e6572600082015250565b60006106fc602083610561565b9150610707826106c6565b602082019050919050565b6000602082019050818103600083015261072b816106ef565b9050919050565b7f4e487b7100000000000000000000000000000000000000000000000000000000600052602260045260246000fd5b6000600282049050600182168061077957607f821691505b6020821081141561078d5761078c610732565b5b50919050565b7f4f776e61626c653a206e6577206f776e657220697320746865207a65726f206160008201527f6464726573730000000000000000000000000000000000000000000000000000602082015250565b60006107ef602683610561565b91506107fa82610793565b604082019050919050565b6000602082019050818103600083015261081e816107e2565b905091905056fea2646970667358221220a4c093e40e99e41a9d8823702c7023c2626996664d189dea91c3d8be279e5f2064736f6c634300080a0033",
  "immutableReferences": {},
  "source": "// Define the version of Solidity to use for this Smart Contract\r\n// SPDX-License-Identifier: MIT\r\npragma solidity >=0.7.0;\r\nimport \"@openzeppelin/contracts/access/Ownable.sol\";\r\n// Define your Smart Contract with the \"Contract\" keyword\r\n\r\ncontract StakingContract is Ownable{\r\n    string private _myString = \"String\";\r\n\r\n    function getString() external view returns (string memory) {\r\n        return _myString;\r\n    }\r\n\r\n    function setString(string calldata newString) external {\r\n        _myString = newString;\r\n    }\r\n}\r\n",
  "sourcePath": "D:\\Sample\\Blockchain\\SmartContract_Solidity\\MyContract\\contracts\\stakingContract.sol",
  "compiler": {
    "name": "solc",
    "version": "0.8.10+commit.fc410830.Emscripten.clang"
  },
  "schemaVersion": "3.4.3",
  "updatedAt": "2021-12-22T22:39:21.052Z",
  "networkType": "ethereum",
  "devdoc": {
    "kind": "dev",
    "methods": {
      "owner()": {
        "details": "Returns the address of the current owner."
      },
      "renounceOwnership()": {
        "details": "Leaves the contract without owner. It will not be possible to call `onlyOwner` functions anymore. Can only be called by the current owner. NOTE: Renouncing ownership will leave the contract without an owner, thereby removing any functionality that is only available to the owner."
      },
      "transferOwnership(address)": {
        "details": "Transfers ownership of the contract to a new account (`newOwner`). Can only be called by the current owner."
      }
    },
    "version": 1
  },
  "userdoc": {
    "kind": "user",
    "methods": {},
    "version": 1
  }
}